{
  "address": "0x3e0DaC670A94ebD63f4b225dA5D228Bf8cCB5030",
  "abi": [
    {
      "inputs": [],
      "name": "AccessControlBadConfirmation",
      "type": "error"
    },
    {
      "inputs": [
        {
          "internalType": "address",
          "name": "account",
          "type": "address"
        },
        {
          "internalType": "bytes32",
          "name": "neededRole",
          "type": "bytes32"
        }
      ],
      "name": "AccessControlUnauthorizedAccount",
      "type": "error"
    },
    {
      "inputs": [],
      "name": "CheckpointUnorderedInsertion",
      "type": "error"
    },
    {
      "inputs": [],
      "name": "ECDSAInvalidSignature",
      "type": "error"
    },
    {
      "inputs": [
        {
          "internalType": "uint256",
          "name": "length",
          "type": "uint256"
        }
      ],
      "name": "ECDSAInvalidSignatureLength",
      "type": "error"
    },
    {
      "inputs": [
        {
          "internalType": "bytes32",
          "name": "s",
          "type": "bytes32"
        }
      ],
      "name": "ECDSAInvalidSignatureS",
      "type": "error"
    },
    {
      "inputs": [
        {
          "internalType": "uint256",
          "name": "timepoint",
          "type": "uint256"
        },
        {
          "internalType": "uint48",
          "name": "clock",
          "type": "uint48"
        }
      ],
      "name": "ERC5805FutureLookup",
      "type": "error"
    },
    {
      "inputs": [],
      "name": "ERC6372InconsistentClock",
      "type": "error"
    },
    {
      "inputs": [
        {
          "internalType": "address",
          "name": "account",
          "type": "address"
        },
        {
          "internalType": "uint256",
          "name": "currentNonce",
          "type": "uint256"
        }
      ],
      "name": "InvalidAccountNonce",
      "type": "error"
    },
    {
      "inputs": [],
      "name": "InvalidInitialization",
      "type": "error"
    },
    {
      "inputs": [],
      "name": "NotInitializing",
      "type": "error"
    },
    {
      "inputs": [],
      "name": "ReentrancyGuardReentrantCall",
      "type": "error"
    },
    {
      "inputs": [
        {
          "internalType": "uint8",
          "name": "bits",
          "type": "uint8"
        },
        {
          "internalType": "uint256",
          "name": "value",
          "type": "uint256"
        }
      ],
      "name": "SafeCastOverflowedUintDowncast",
      "type": "error"
    },
    {
      "inputs": [
        {
          "internalType": "address",
          "name": "token",
          "type": "address"
        }
      ],
      "name": "SafeERC20FailedOperation",
      "type": "error"
    },
    {
      "inputs": [
        {
          "internalType": "uint256",
          "name": "expiry",
          "type": "uint256"
        }
      ],
      "name": "VotesExpiredSignature",
      "type": "error"
    },
    {
      "anonymous": false,
      "inputs": [
        {
          "indexed": false,
          "internalType": "bool",
          "name": "adminUnlocked",
          "type": "bool"
        }
      ],
      "name": "AdminUnlocked",
      "type": "event"
    },
    {
      "anonymous": false,
      "inputs": [
        {
          "indexed": true,
          "internalType": "address",
          "name": "user",
          "type": "address"
        },
        {
          "indexed": false,
          "internalType": "uint256",
          "name": "id",
          "type": "uint256"
        },
        {
          "indexed": false,
          "internalType": "bool",
          "name": "autoRenew",
          "type": "bool"
        }
      ],
      "name": "AutoRenew",
      "type": "event"
    },
    {
      "anonymous": false,
      "inputs": [
        {
          "indexed": true,
          "internalType": "address",
          "name": "delegator",
          "type": "address"
        },
        {
          "indexed": true,
          "internalType": "address",
          "name": "fromDelegate",
          "type": "address"
        },
        {
          "indexed": true,
          "internalType": "address",
          "name": "toDelegate",
          "type": "address"
        }
      ],
      "name": "DelegateChanged",
      "type": "event"
    },
    {
      "anonymous": false,
      "inputs": [
        {
          "indexed": true,
          "internalType": "address",
          "name": "delegate",
          "type": "address"
        },
        {
          "indexed": false,
          "internalType": "uint256",
          "name": "previousVotes",
          "type": "uint256"
        },
        {
          "indexed": false,
          "internalType": "uint256",
          "name": "newVotes",
          "type": "uint256"
        }
      ],
      "name": "DelegateVotesChanged",
      "type": "event"
    },
    {
      "anonymous": false,
      "inputs": [],
      "name": "EIP712DomainChanged",
      "type": "event"
    },
    {
      "anonymous": false,
      "inputs": [
        {
          "indexed": true,
          "internalType": "address",
          "name": "user",
          "type": "address"
        },
        {
          "indexed": false,
          "internalType": "uint256",
          "name": "id",
          "type": "uint256"
        },
        {
          "indexed": false,
          "internalType": "uint8",
          "name": "numWeeks",
          "type": "uint8"
        }
      ],
      "name": "Extend",
      "type": "event"
    },
    {
      "anonymous": false,
      "inputs": [
        {
          "indexed": false,
          "internalType": "uint64",
          "name": "version",
          "type": "uint64"
        }
      ],
      "name": "Initialized",
      "type": "event"
    },
    {
      "anonymous": false,
      "inputs": [
        {
          "indexed": true,
          "internalType": "bytes32",
          "name": "role",
          "type": "bytes32"
        },
        {
          "indexed": true,
          "internalType": "bytes32",
          "name": "previousAdminRole",
          "type": "bytes32"
        },
        {
          "indexed": true,
          "internalType": "bytes32",
          "name": "newAdminRole",
          "type": "bytes32"
        }
      ],
      "name": "RoleAdminChanged",
      "type": "event"
    },
    {
      "anonymous": false,
      "inputs": [
        {
          "indexed": true,
          "internalType": "bytes32",
          "name": "role",
          "type": "bytes32"
        },
        {
          "indexed": true,
          "internalType": "address",
          "name": "account",
          "type": "address"
        },
        {
          "indexed": true,
          "internalType": "address",
          "name": "sender",
          "type": "address"
        }
      ],
      "name": "RoleGranted",
      "type": "event"
    },
    {
      "anonymous": false,
      "inputs": [
        {
          "indexed": true,
          "internalType": "bytes32",
          "name": "role",
          "type": "bytes32"
        },
        {
          "indexed": true,
          "internalType": "address",
          "name": "account",
          "type": "address"
        },
        {
          "indexed": true,
          "internalType": "address",
          "name": "sender",
          "type": "address"
        }
      ],
      "name": "RoleRevoked",
      "type": "event"
    },
    {
      "anonymous": false,
      "inputs": [
        {
          "indexed": true,
          "internalType": "address",
          "name": "user",
          "type": "address"
        },
        {
          "indexed": false,
          "internalType": "uint256",
          "name": "id",
          "type": "uint256"
        },
        {
          "indexed": false,
          "internalType": "uint256",
          "name": "amount",
          "type": "uint256"
        },
        {
          "indexed": false,
          "internalType": "uint8",
          "name": "numWeeks",
          "type": "uint8"
        }
      ],
      "name": "Stake",
      "type": "event"
    },
    {
      "anonymous": false,
      "inputs": [
        {
          "indexed": true,
          "internalType": "address",
          "name": "user",
          "type": "address"
        },
        {
          "indexed": false,
          "internalType": "uint256",
          "name": "id",
          "type": "uint256"
        },
        {
          "indexed": false,
          "internalType": "uint256",
          "name": "amount",
          "type": "uint256"
        }
      ],
      "name": "Withdraw",
      "type": "event"
    },
    {
      "inputs": [],
      "name": "ADMIN_ROLE",
      "outputs": [
        {
          "internalType": "bytes32",
          "name": "",
          "type": "bytes32"
        }
      ],
      "stateMutability": "view",
      "type": "function"
    },
    {
      "inputs": [],
      "name": "CLOCK_MODE",
      "outputs": [
        {
          "internalType": "string",
          "name": "",
          "type": "string"
        }
      ],
      "stateMutability": "view",
      "type": "function"
    },
    {
      "inputs": [],
      "name": "DEFAULT_ADMIN_ROLE",
      "outputs": [
        {
          "internalType": "bytes32",
          "name": "",
          "type": "bytes32"
        }
      ],
      "stateMutability": "view",
      "type": "function"
    },
    {
      "inputs": [],
      "name": "DENOM",
      "outputs": [
        {
          "internalType": "uint16",
          "name": "",
          "type": "uint16"
        }
      ],
      "stateMutability": "view",
      "type": "function"
    },
    {
      "inputs": [],
      "name": "MAX_POSITIONS",
      "outputs": [
        {
          "internalType": "uint256",
          "name": "",
          "type": "uint256"
        }
      ],
      "stateMutability": "view",
      "type": "function"
    },
    {
      "inputs": [],
      "name": "adminUnlocked",
      "outputs": [
        {
          "internalType": "bool",
          "name": "",
          "type": "bool"
        }
      ],
      "stateMutability": "view",
      "type": "function"
    },
    {
      "inputs": [
        {
          "internalType": "address",
          "name": "account",
          "type": "address"
        }
      ],
      "name": "balanceOf",
      "outputs": [
        {
          "internalType": "uint256",
          "name": "",
          "type": "uint256"
        }
      ],
      "stateMutability": "view",
      "type": "function"
    },
    {
      "inputs": [
        {
          "internalType": "address",
          "name": "account",
          "type": "address"
        },
        {
          "internalType": "uint256",
          "name": "timestamp",
          "type": "uint256"
        }
      ],
      "name": "balanceOfAt",
      "outputs": [
        {
          "internalType": "uint256",
          "name": "",
          "type": "uint256"
        }
      ],
      "stateMutability": "view",
      "type": "function"
    },
    {
      "inputs": [
        {
          "internalType": "address",
          "name": "account",
          "type": "address"
        },
        {
          "internalType": "uint256",
          "name": "index",
          "type": "uint256"
        }
      ],
      "name": "balanceOfLock",
      "outputs": [
        {
          "internalType": "uint256",
          "name": "",
          "type": "uint256"
        }
      ],
      "stateMutability": "view",
      "type": "function"
    },
    {
      "inputs": [],
      "name": "baseToken",
      "outputs": [
        {
          "internalType": "address",
          "name": "",
          "type": "address"
        }
      ],
      "stateMutability": "view",
      "type": "function"
    },
    {
      "inputs": [],
      "name": "clock",
      "outputs": [
        {
          "internalType": "uint48",
          "name": "",
          "type": "uint48"
        }
      ],
      "stateMutability": "view",
      "type": "function"
    },
    {
      "inputs": [],
      "name": "decimals",
      "outputs": [
        {
          "internalType": "uint8",
          "name": "",
          "type": "uint8"
        }
      ],
      "stateMutability": "pure",
      "type": "function"
    },
    {
      "inputs": [
        {
          "internalType": "address",
          "name": "delegatee",
          "type": "address"
        }
      ],
      "name": "delegate",
      "outputs": [],
      "stateMutability": "nonpayable",
      "type": "function"
    },
    {
      "inputs": [
        {
          "internalType": "address",
          "name": "delegatee",
          "type": "address"
        },
        {
          "internalType": "uint256",
          "name": "nonce",
          "type": "uint256"
        },
        {
          "internalType": "uint256",
          "name": "expiry",
          "type": "uint256"
        },
        {
          "internalType": "uint8",
          "name": "v",
          "type": "uint8"
        },
        {
          "internalType": "bytes32",
          "name": "r",
          "type": "bytes32"
        },
        {
          "internalType": "bytes32",
          "name": "s",
          "type": "bytes32"
        }
      ],
      "name": "delegateBySig",
      "outputs": [],
      "stateMutability": "nonpayable",
      "type": "function"
    },
    {
      "inputs": [
        {
          "internalType": "address",
          "name": "account",
          "type": "address"
        }
      ],
      "name": "delegates",
      "outputs": [
        {
          "internalType": "address",
          "name": "",
          "type": "address"
        }
      ],
      "stateMutability": "view",
      "type": "function"
    },
    {
      "inputs": [],
      "name": "eip712Domain",
      "outputs": [
        {
          "internalType": "bytes1",
          "name": "fields",
          "type": "bytes1"
        },
        {
          "internalType": "string",
          "name": "name",
          "type": "string"
        },
        {
          "internalType": "string",
          "name": "version",
          "type": "string"
        },
        {
          "internalType": "uint256",
          "name": "chainId",
          "type": "uint256"
        },
        {
          "internalType": "address",
          "name": "verifyingContract",
          "type": "address"
        },
        {
          "internalType": "bytes32",
          "name": "salt",
          "type": "bytes32"
        },
        {
          "internalType": "uint256[]",
          "name": "extensions",
          "type": "uint256[]"
        }
      ],
      "stateMutability": "view",
      "type": "function"
    },
    {
      "inputs": [
        {
          "internalType": "uint256",
          "name": "id",
          "type": "uint256"
        },
        {
          "internalType": "uint8",
          "name": "numWeeks",
          "type": "uint8"
        }
      ],
      "name": "extend",
      "outputs": [],
      "stateMutability": "nonpayable",
      "type": "function"
    },
    {
      "inputs": [
        {
          "internalType": "address",
          "name": "account",
          "type": "address"
        },
        {
          "internalType": "uint256",
          "name": "id",
          "type": "uint256"
        }
      ],
      "name": "getMaturity",
      "outputs": [
        {
          "internalType": "uint256",
          "name": "",
          "type": "uint256"
        }
      ],
      "stateMutability": "view",
      "type": "function"
    },
    {
      "inputs": [
        {
          "internalType": "uint256",
          "name": "timepoint",
          "type": "uint256"
        }
      ],
      "name": "getPastTotalSupply",
      "outputs": [
        {
          "internalType": "uint256",
          "name": "",
          "type": "uint256"
        }
      ],
      "stateMutability": "view",
      "type": "function"
    },
    {
      "inputs": [
        {
          "internalType": "address",
          "name": "account",
          "type": "address"
        },
        {
          "internalType": "uint256",
          "name": "timepoint",
          "type": "uint256"
        }
      ],
      "name": "getPastVotes",
      "outputs": [
        {
          "internalType": "uint256",
          "name": "",
          "type": "uint256"
        }
      ],
      "stateMutability": "view",
      "type": "function"
    },
    {
      "inputs": [
        {
          "internalType": "address",
          "name": "account",
          "type": "address"
        },
        {
          "internalType": "uint256",
          "name": "start",
          "type": "uint256"
        },
        {
          "internalType": "uint256",
          "name": "count",
          "type": "uint256"
        }
      ],
      "name": "getPositions",
      "outputs": [
        {
          "components": [
            {
              "internalType": "uint256",
              "name": "amount",
              "type": "uint256"
            },
            {
              "internalType": "uint256",
              "name": "start",
              "type": "uint256"
            },
            {
              "internalType": "uint256",
              "name": "end",
              "type": "uint256"
            },
            {
              "internalType": "uint8",
              "name": "numWeeks",
              "type": "uint8"
            },
            {
              "internalType": "bool",
              "name": "autoRenew",
              "type": "bool"
            },
            {
              "internalType": "uint256",
              "name": "id",
              "type": "uint256"
            }
          ],
          "internalType": "struct veVirtual.Lock[]",
          "name": "",
          "type": "tuple[]"
        }
      ],
      "stateMutability": "view",
      "type": "function"
    },
    {
      "inputs": [
        {
          "internalType": "bytes32",
          "name": "role",
          "type": "bytes32"
        }
      ],
      "name": "getRoleAdmin",
      "outputs": [
        {
          "internalType": "bytes32",
          "name": "",
          "type": "bytes32"
        }
      ],
      "stateMutability": "view",
      "type": "function"
    },
    {
      "inputs": [
        {
          "internalType": "address",
          "name": "account",
          "type": "address"
        }
      ],
      "name": "getVotes",
      "outputs": [
        {
          "internalType": "uint256",
          "name": "",
          "type": "uint256"
        }
      ],
      "stateMutability": "view",
      "type": "function"
    },
    {
      "inputs": [
        {
          "internalType": "bytes32",
          "name": "role",
          "type": "bytes32"
        },
        {
          "internalType": "address",
          "name": "account",
          "type": "address"
        }
      ],
      "name": "grantRole",
      "outputs": [],
      "stateMutability": "nonpayable",
      "type": "function"
    },
    {
      "inputs": [
        {
          "internalType": "bytes32",
          "name": "role",
          "type": "bytes32"
        },
        {
          "internalType": "address",
          "name": "account",
          "type": "address"
        }
      ],
      "name": "hasRole",
      "outputs": [
        {
          "internalType": "bool",
          "name": "",
          "type": "bool"
        }
      ],
      "stateMutability": "view",
      "type": "function"
    },
    {
      "inputs": [
        {
          "internalType": "address",
          "name": "baseToken_",
          "type": "address"
        },
        {
          "internalType": "uint8",
          "name": "maxWeeks_",
          "type": "uint8"
        }
      ],
      "name": "initialize",
      "outputs": [],
      "stateMutability": "nonpayable",
      "type": "function"
    },
    {
      "inputs": [
        {
          "internalType": "address",
          "name": "",
          "type": "address"
        },
        {
          "internalType": "uint256",
          "name": "",
          "type": "uint256"
        }
      ],
      "name": "locks",
      "outputs": [
        {
          "internalType": "uint256",
          "name": "amount",
          "type": "uint256"
        },
        {
          "internalType": "uint256",
          "name": "start",
          "type": "uint256"
        },
        {
          "internalType": "uint256",
          "name": "end",
          "type": "uint256"
        },
        {
          "internalType": "uint8",
          "name": "numWeeks",
          "type": "uint8"
        },
        {
          "internalType": "bool",
          "name": "autoRenew",
          "type": "bool"
        },
        {
          "internalType": "uint256",
          "name": "id",
          "type": "uint256"
        }
      ],
      "stateMutability": "view",
      "type": "function"
    },
    {
      "inputs": [],
      "name": "maxWeeks",
      "outputs": [
        {
          "internalType": "uint8",
          "name": "",
          "type": "uint8"
        }
      ],
      "stateMutability": "view",
      "type": "function"
    },
    {
      "inputs": [],
      "name": "name",
      "outputs": [
        {
          "internalType": "string",
          "name": "",
          "type": "string"
        }
      ],
      "stateMutability": "pure",
      "type": "function"
    },
    {
      "inputs": [
        {
          "internalType": "address",
          "name": "owner",
          "type": "address"
        }
      ],
      "name": "nonces",
      "outputs": [
        {
          "internalType": "uint256",
          "name": "",
          "type": "uint256"
        }
      ],
      "stateMutability": "view",
      "type": "function"
    },
    {
      "inputs": [
        {
          "internalType": "address",
          "name": "account",
          "type": "address"
        }
      ],
      "name": "numPositions",
      "outputs": [
        {
          "internalType": "uint256",
          "name": "",
          "type": "uint256"
        }
      ],
      "stateMutability": "view",
      "type": "function"
    },
    {
      "inputs": [
        {
          "internalType": "bytes32",
          "name": "role",
          "type": "bytes32"
        },
        {
          "internalType": "address",
          "name": "callerConfirmation",
          "type": "address"
        }
      ],
      "name": "renounceRole",
      "outputs": [],
      "stateMutability": "nonpayable",
      "type": "function"
    },
    {
      "inputs": [
        {
          "internalType": "bytes32",
          "name": "role",
          "type": "bytes32"
        },
        {
          "internalType": "address",
          "name": "account",
          "type": "address"
        }
      ],
      "name": "revokeRole",
      "outputs": [],
      "stateMutability": "nonpayable",
      "type": "function"
    },
    {
      "inputs": [
        {
          "internalType": "bool",
          "name": "adminUnlocked_",
          "type": "bool"
        }
      ],
      "name": "setAdminUnlocked",
      "outputs": [],
      "stateMutability": "nonpayable",
      "type": "function"
    },
    {
      "inputs": [
        {
          "internalType": "uint8",
          "name": "maxWeeks_",
          "type": "uint8"
        }
      ],
      "name": "setMaxWeeks",
      "outputs": [],
      "stateMutability": "nonpayable",
      "type": "function"
    },
    {
      "inputs": [
        {
          "internalType": "uint256",
          "name": "amount",
          "type": "uint256"
        },
        {
          "internalType": "uint8",
          "name": "numWeeks",
          "type": "uint8"
        },
        {
          "internalType": "bool",
          "name": "autoRenew",
          "type": "bool"
        }
      ],
      "name": "stake",
      "outputs": [],
      "stateMutability": "nonpayable",
      "type": "function"
    },
    {
      "inputs": [
        {
          "internalType": "address",
          "name": "account",
          "type": "address"
        }
      ],
      "name": "stakedAmountOf",
      "outputs": [
        {
          "internalType": "uint256",
          "name": "",
          "type": "uint256"
        }
      ],
      "stateMutability": "view",
      "type": "function"
    },
    {
      "inputs": [
        {
          "internalType": "bytes4",
          "name": "interfaceId",
          "type": "bytes4"
        }
      ],
      "name": "supportsInterface",
      "outputs": [
        {
          "internalType": "bool",
          "name": "",
          "type": "bool"
        }
      ],
      "stateMutability": "view",
      "type": "function"
    },
    {
      "inputs": [],
      "name": "symbol",
      "outputs": [
        {
          "internalType": "string",
          "name": "",
          "type": "string"
        }
      ],
      "stateMutability": "pure",
      "type": "function"
    },
    {
      "inputs": [
        {
          "internalType": "uint256",
          "name": "id",
          "type": "uint256"
        }
      ],
      "name": "toggleAutoRenew",
      "outputs": [],
      "stateMutability": "nonpayable",
      "type": "function"
    },
    {
      "inputs": [
        {
          "internalType": "uint256",
          "name": "id",
          "type": "uint256"
        }
      ],
      "name": "withdraw",
      "outputs": [],
      "stateMutability": "nonpayable",
      "type": "function"
    }
  ],
  "transactionHash": "0x4db0d9b11b500e7a06b2ba2b64cdb9439efc16f4b53ae6f408eef34da88dd1b4",
  "args": [],
  "numDeployments": 1,
  "solcInputHash": "190fb9fd36b5459d83691f47b672db3d",
  "bytecode": "0x608060405234801561001057600080fd5b50615d6d80620000216000396000f3fe608060405234801561001057600080fd5b50600436106102535760003560e01c806375b238fc11610146578063a217fddf116100c3578063c55dae6311610087578063c55dae6314610779578063d547741f14610797578063de6e659c146107b3578063e49dbb4f146107e3578063f48355b9146107ff578063f7b24e081461081b57610253565b8063a217fddf146106be578063b425f802146106dc578063b7d7702c14610711578063be3956bf14610741578063c3cda5201461075d57610253565b806391d148541161010a57806391d148541461060657806391ddadf414610636578063943b24b21461065457806395d89b41146106705780639ab24eb01461068e57610253565b806375b238fc146105465780637e530d2f146105645780637ecebe001461058257806384b0196e146105b25780638e539e8c146105d657610253565b80633a46b1a8116101d45780635c19a95c116101985780635c19a95c1461047e5780635fcdad911461049a578063605830ef146104ca5780636e7ed07b146104fa57806370a082311461051657610253565b80633a46b1a8146103b45780634bf5d7e9146103e45780634ee2cd7e1461040257806355168c9314610432578063587cde1e1461044e57610253565b80632b4bce311161021b5780632b4bce31146103245780632e1a7d4d146103425780632f2ff15d1461035e578063313ce5671461037a57806336568abe1461039857610253565b806301ffc9a71461025857806306fdde031461028857806316343da4146102a6578063248a9ca3146102c4578063288b1c68146102f4575b600080fd5b610272600480360381019061026d919061454c565b610839565b60405161027f9190614594565b60405180910390f35b6102906108b3565b60405161029d919061463f565b60405180910390f35b6102ae6108f0565b6040516102bb919061467e565b60405180910390f35b6102de60048036038101906102d991906146cf565b6108f6565b6040516102eb919061470b565b60405180910390f35b61030e600480360381019061030991906147ba565b610924565b60405161031b9190614971565b60405180910390f35b61032c610afb565b60405161033991906149a2565b60405180910390f35b61035c600480360381019061035791906149bd565b610b0e565b005b610378600480360381019061037391906149ea565b610fb5565b005b610382610fd7565b60405161038f91906149a2565b60405180910390f35b6103b260048036038101906103ad91906149ea565b610fe0565b005b6103ce60048036038101906103c99190614a2a565b61105b565b6040516103db9190614a79565b60405180910390f35b6103ec6110e8565b6040516103f9919061463f565b60405180910390f35b61041c60048036038101906104179190614a2a565b61117c565b6040516104299190614a79565b60405180910390f35b61044c60048036038101906104479190614ac0565b6112ce565b005b61046860048036038101906104639190614b00565b61152b565b6040516104759190614b3c565b60405180910390f35b61049860048036038101906104939190614b00565b6115a2565b005b6104b460048036038101906104af9190614b00565b6115bc565b6040516104c19190614a79565b60405180910390f35b6104e460048036038101906104df9190614a2a565b61169d565b6040516104f19190614a79565b60405180910390f35b610514600480360381019061050f9190614b57565b61182b565b005b610530600480360381019061052b9190614b00565b611874565b60405161053d9190614a79565b60405180910390f35b61054e611887565b60405161055b919061470b565b60405180910390f35b61056c6118ab565b6040516105799190614594565b60405180910390f35b61059c60048036038101906105979190614b00565b6118be565b6040516105a99190614a79565b60405180910390f35b6105ba611915565b6040516105cd9796959493929190614c6e565b60405180910390f35b6105f060048036038101906105eb91906149bd565b611a27565b6040516105fd9190614a79565b60405180910390f35b610620600480360381019061061b91906149ea565b611a76565b60405161062d9190614594565b60405180910390f35b61063e611aef565b60405161064b9190614d13565b60405180910390f35b61066e60048036038101906106699190614d2e565b611afe565b005b610678611e2a565b604051610685919061463f565b60405180910390f35b6106a860048036038101906106a39190614b00565b611e67565b6040516106b59190614a79565b60405180910390f35b6106c6611ee1565b6040516106d3919061470b565b60405180910390f35b6106f660048036038101906106f19190614a2a565b611ee8565b60405161070896959493929190614d6e565b60405180910390f35b61072b60048036038101906107269190614b00565b611f5b565b6040516107389190614a79565b60405180910390f35b61075b60048036038101906107569190614dfb565b611fa7565b005b61077760048036038101906107729190614e28565b612035565b005b6107816120fb565b60405161078e9190614b3c565b60405180910390f35b6107b160048036038101906107ac91906149ea565b61211f565b005b6107cd60048036038101906107c89190614a2a565b612141565b6040516107da9190614a79565b60405180910390f35b6107fd60048036038101906107f89190614eb5565b61221d565b005b610819600480360381019061081491906149bd565b6125ca565b005b61082361279b565b6040516108309190614a79565b60405180910390f35b60007f7965db0b000000000000000000000000000000000000000000000000000000007bffffffffffffffffffffffffffffffffffffffffffffffffffffffff1916827bffffffffffffffffffffffffffffffffffffffffffffffffffffffff191614806108ac57506108ab826127a0565b5b9050919050565b60606040518060400160405280600981526020017f76655649525455414c0000000000000000000000000000000000000000000000815250905090565b61271081565b60008061090161280a565b905080600001600084815260200190815260200160002060010154915050919050565b606060008267ffffffffffffffff81111561094257610941614f08565b5b60405190808252806020026020018201604052801561097b57816020015b6109686144b4565b8152602001906001900390816109605790505b5090506000808590505b84866109919190614f66565b811080156109e05750600160008873ffffffffffffffffffffffffffffffffffffffff1673ffffffffffffffffffffffffffffffffffffffff1681526020019081526020016000208054905081105b15610aee57600160008873ffffffffffffffffffffffffffffffffffffffff1673ffffffffffffffffffffffffffffffffffffffff1681526020019081526020016000208181548110610a3657610a35614f9a565b5b90600052602060002090600502016040518060c00160405290816000820154815260200160018201548152602001600282015481526020016003820160009054906101000a900460ff1660ff1660ff1681526020016003820160019054906101000a900460ff16151515158152602001600482015481525050838381518110610ac257610ac1614f9a565b5b60200260200101819052508180610ad890614fc9565b9250508080610ae690614fc9565b915050610985565b5081925050509392505050565b600360009054906101000a900460ff1681565b610b16612832565b6000610b20612889565b90506000610b2e8284612891565b90506000600160008473ffffffffffffffffffffffffffffffffffffffff1673ffffffffffffffffffffffffffffffffffffffff1681526020019081526020016000208281548110610b8357610b82614f9a565b5b90600052602060002090600502016040518060c00160405290816000820154815260200160018201548152602001600282015481526020016003820160009054906101000a900460ff1660ff1660ff1681526020016003820160019054906101000a900460ff161515151581526020016004820154815250509050806040015142101580610c1d5750600360019054906101000a900460ff165b610c5c576040517f08c379a0000000000000000000000000000000000000000000000000000000008152600401610c539061505d565b60405180910390fd5b600015158160800151151514610ca7576040517f08c379a0000000000000000000000000000000000000000000000000000000008152600401610c9e906150c9565b60405180910390fd5b600081600001519050600060018060008773ffffffffffffffffffffffffffffffffffffffff1673ffffffffffffffffffffffffffffffffffffffff16815260200190815260200160002080549050610d0091906150e9565b9050808414610e4e57600160008673ffffffffffffffffffffffffffffffffffffffff1673ffffffffffffffffffffffffffffffffffffffff1681526020019081526020016000208181548110610d5a57610d59614f9a565b5b9060005260206000209060050201600160008773ffffffffffffffffffffffffffffffffffffffff1673ffffffffffffffffffffffffffffffffffffffff1681526020019081526020016000208581548110610db957610db8614f9a565b5b90600052602060002090600502016000820154816000015560018201548160010155600282015481600201556003820160009054906101000a900460ff168160030160006101000a81548160ff021916908360ff1602179055506003820160019054906101000a900460ff168160030160016101000a81548160ff021916908315150217905550600482015481600401559050505b600160008673ffffffffffffffffffffffffffffffffffffffff1673ffffffffffffffffffffffffffffffffffffffff168152602001908152602001600020805480610e9d57610e9c61511d565b5b6001900381819060005260206000209060050201600080820160009055600182016000905560028201600090556003820160006101000a81549060ff02191690556003820160016101000a81549060ff0219169055600482016000905550509055610f49858360008054906101000a900473ffffffffffffffffffffffffffffffffffffffff1673ffffffffffffffffffffffffffffffffffffffff166129aa9092919063ffffffff16565b8473ffffffffffffffffffffffffffffffffffffffff167ff279e6a1f5e320cca91135676d9cb6e44ca8a08c0b88342bcdb1144f6511b5688784604051610f9192919061514c565b60405180910390a2610fa585600084612a29565b5050505050610fb2612af4565b50565b610fbe826108f6565b610fc781612b0d565b610fd18383612b21565b50505050565b60006012905090565b610fe8612889565b73ffffffffffffffffffffffffffffffffffffffff168173ffffffffffffffffffffffffffffffffffffffff161461104c576040517f6697b23200000000000000000000000000000000000000000000000000000000815260040160405180910390fd5b6110568282612c22565b505050565b600080611066612d24565b90506110c361107484612d4c565b8260010160008773ffffffffffffffffffffffffffffffffffffffff1673ffffffffffffffffffffffffffffffffffffffff168152602001908152602001600020612db890919063ffffffff16565b79ffffffffffffffffffffffffffffffffffffffffffffffffffff1691505092915050565b60606110f2612eb2565b65ffffffffffff16611102611aef565b65ffffffffffff1614611141576040517f6ff0714000000000000000000000000000000000000000000000000000000000815260040160405180910390fd5b6040518060400160405280601d81526020017f6d6f64653d626c6f636b6e756d6265722666726f6d3d64656661756c74000000815250905090565b6000806000905060005b600160008673ffffffffffffffffffffffffffffffffffffffff1673ffffffffffffffffffffffffffffffffffffffff168152602001908152602001600020805490508110156112c3576112a3600160008773ffffffffffffffffffffffffffffffffffffffff1673ffffffffffffffffffffffffffffffffffffffff168152602001908152602001600020828154811061122457611223614f9a565b5b90600052602060002090600502016040518060c00160405290816000820154815260200160018201548152602001600282015481526020016003820160009054906101000a900460ff1660ff1660ff1681526020016003820160019054906101000a900460ff1615151515815260200160048201548152505085612ec2565b826112ae9190614f66565b915080806112bb90614fc9565b915050611186565b508091505092915050565b6112d6612832565b60006112e0612889565b905060006112ee8285612891565b90506000600160008473ffffffffffffffffffffffffffffffffffffffff1673ffffffffffffffffffffffffffffffffffffffff168152602001908152602001600020828154811061134357611342614f9a565b5b90600052602060002090600502019050600015158160030160019054906101000a900460ff161515146113ab576040517f08c379a00000000000000000000000000000000000000000000000000000000081526004016113a2906150c9565b60405180910390fd5b806002015442106113f1576040517f08c379a00000000000000000000000000000000000000000000000000000000081526004016113e8906151c1565b60405180910390fd5b600360009054906101000a900460ff1660ff16848260030160009054906101000a900460ff1661142191906151e1565b60ff161115611465576040517f08c379a000000000000000000000000000000000000000000000000000000000815260040161145c90615288565b60405180910390fd5b600062093a808560ff1661147991906152a8565b82600201546114889190614f66565b9050848260030160008282829054906101000a900460ff166114aa91906151e1565b92506101000a81548160ff021916908360ff1602179055508082600201819055508373ffffffffffffffffffffffffffffffffffffffff167f2b1bad57ed45c0298a4d6a14dc8850fb68015d5bd10457c2ec5ff8b58723017387876040516115139291906152ea565b60405180910390a250505050611527612af4565b5050565b600080611536612d24565b90508060000160008473ffffffffffffffffffffffffffffffffffffffff1673ffffffffffffffffffffffffffffffffffffffff16815260200190815260200160002060009054906101000a900473ffffffffffffffffffffffffffffffffffffffff16915050919050565b60006115ac612889565b90506115b88183612fb2565b5050565b6000806000905060005b600160008573ffffffffffffffffffffffffffffffffffffffff1673ffffffffffffffffffffffffffffffffffffffff1681526020019081526020016000208054905081101561169357600160008573ffffffffffffffffffffffffffffffffffffffff1673ffffffffffffffffffffffffffffffffffffffff168152602001908152602001600020818154811061166157611660614f9a565b5b9060005260206000209060050201600001548261167e9190614f66565b9150808061168b90614fc9565b9150506115c6565b5080915050919050565b6000806116aa8484612891565b90506000600160008673ffffffffffffffffffffffffffffffffffffffff1673ffffffffffffffffffffffffffffffffffffffff16815260200190815260200160002082815481106116ff576116fe614f9a565b5b90600052602060002090600502016040518060c00160405290816000820154815260200160018201548152602001600282015481526020016003820160009054906101000a900460ff1660ff1660ff1681526020016003820160019054906101000a900460ff16151515158152602001600482015481525050905080608001516117ef57600160008673ffffffffffffffffffffffffffffffffffffffff1673ffffffffffffffffffffffffffffffffffffffff16815260200190815260200160002082815481106117d4576117d3614f9a565b5b90600052602060002090600502016002015492505050611825565b62093a80600360009054906101000a900460ff1660ff166118109190615322565b62ffffff16426118209190614f66565b925050505b92915050565b7fa49807205ce4d355092ef5a8a18f56e8913cf4a201fbe287825b095693c2177561185581612b0d565b81600360006101000a81548160ff021916908360ff1602179055505050565b6000611880824261117c565b9050919050565b7fa49807205ce4d355092ef5a8a18f56e8913cf4a201fbe287825b095693c2177581565b600360019054906101000a900460ff1681565b6000806118c96130d5565b90508060000160008473ffffffffffffffffffffffffffffffffffffffff1673ffffffffffffffffffffffffffffffffffffffff16815260200190815260200160002054915050919050565b600060608060008060006060600061192b6130fd565b90506000801b816000015414801561194957506000801b8160010154145b611988576040517f08c379a000000000000000000000000000000000000000000000000000000000815260040161197f906153ab565b60405180910390fd5b611990613125565b6119986131c6565b46306000801b600067ffffffffffffffff8111156119b9576119b8614f08565b5b6040519080825280602002602001820160405280156119e75781602001602082028036833780820191505090505b507f0f0000000000000000000000000000000000000000000000000000000000000095949392919097509750975097509750975097505090919293949596565b600080611a32612d24565b9050611a52611a4084612d4c565b82600201612db890919063ffffffff16565b79ffffffffffffffffffffffffffffffffffffffffffffffffffff16915050919050565b600080611a8161280a565b905080600001600085815260200190815260200160002060000160008473ffffffffffffffffffffffffffffffffffffffff1673ffffffffffffffffffffffffffffffffffffffff16815260200190815260200160002060009054906101000a900460ff1691505092915050565b6000611af9612eb2565b905090565b6000611b08613267565b905060008160000160089054906101000a900460ff1615905060008260000160009054906101000a900467ffffffffffffffff1690506000808267ffffffffffffffff16148015611b565750825b9050600060018367ffffffffffffffff16148015611b8b575060003073ffffffffffffffffffffffffffffffffffffffff163b145b905081158015611b99575080155b15611bd0576040517ff92ee8a900000000000000000000000000000000000000000000000000000000815260040160405180910390fd5b60018560000160006101000a81548167ffffffffffffffff021916908367ffffffffffffffff1602179055508315611c205760018560000160086101000a81548160ff0219169083151502179055505b611c2861327b565b611c3061328d565b611c38613297565b611cac6040518060400160405280600981526020017f76655649525455414c00000000000000000000000000000000000000000000008152506040518060400160405280600181526020017f31000000000000000000000000000000000000000000000000000000000000008152506132a1565b600073ffffffffffffffffffffffffffffffffffffffff168773ffffffffffffffffffffffffffffffffffffffff1603611d1b576040517f08c379a0000000000000000000000000000000000000000000000000000000008152600401611d1290615417565b60405180910390fd5b866000806101000a81548173ffffffffffffffffffffffffffffffffffffffff021916908373ffffffffffffffffffffffffffffffffffffffff16021790555085600360006101000a81548160ff021916908360ff1602179055506001600281905550611d926000801b611d8d612889565b612b21565b50611dc47fa49807205ce4d355092ef5a8a18f56e8913cf4a201fbe287825b095693c21775611dbf612889565b612b21565b508315611e215760008560000160086101000a81548160ff0219169083151502179055507fc7f505b2f371ae2175ee4913f4499e1f2633a7b5936321eed1cdaeb6115181d26001604051611e189190615490565b60405180910390a15b50505050505050565b60606040518060400160405280600981526020017f76655649525455414c0000000000000000000000000000000000000000000000815250905090565b600080611e72612d24565b9050611ebd8160010160008573ffffffffffffffffffffffffffffffffffffffff1673ffffffffffffffffffffffffffffffffffffffff1681526020019081526020016000206132b7565b79ffffffffffffffffffffffffffffffffffffffffffffffffffff16915050919050565b6000801b81565b60016020528160005260406000208181548110611f0457600080fd5b9060005260206000209060050201600091509150508060000154908060010154908060020154908060030160009054906101000a900460ff16908060030160019054906101000a900460ff16908060040154905086565b6000600160008373ffffffffffffffffffffffffffffffffffffffff1673ffffffffffffffffffffffffffffffffffffffff168152602001908152602001600020805490509050919050565b7fa49807205ce4d355092ef5a8a18f56e8913cf4a201fbe287825b095693c21775611fd181612b0d565b81600360016101000a81548160ff0219169083151502179055507f1664fc9d2adc81edeb38788b177fdfe12c9c15bd10b40663e9744e1af1c56a86600360019054906101000a900460ff166040516120299190614594565b60405180910390a15050565b8342111561207a57836040517f4683af0e0000000000000000000000000000000000000000000000000000000081526004016120719190614a79565b60405180910390fd5b60006120dc6120d47fe48329057bfd03d55e49b547132e39cffd9c1820ad7b9d4c5307691425d15adf8989896040516020016120b994939291906154ab565b6040516020818303038152906040528051906020012061331f565b858585613339565b90506120e88187613369565b6120f28188612fb2565b50505050505050565b60008054906101000a900473ffffffffffffffffffffffffffffffffffffffff1681565b612128826108f6565b61213181612b0d565b61213b8383612c22565b50505050565b6000612215600160008573ffffffffffffffffffffffffffffffffffffffff1673ffffffffffffffffffffffffffffffffffffffff168152602001908152602001600020838154811061219757612196614f9a565b5b90600052602060002090600502016040518060c00160405290816000820154815260200160018201548152602001600282015481526020016003820160009054906101000a900460ff1660ff1660ff1681526020016003820160019054906101000a900460ff161515151581526020016004820154815250506133c1565b905092915050565b612225612832565b60008311612268576040517f08c379a000000000000000000000000000000000000000000000000000000000815260040161225f9061553c565b60405180910390fd5b600360009054906101000a900460ff1660ff168260ff1611156122c0576040517f08c379a00000000000000000000000000000000000000000000000000000000081526004016122b790615288565b60405180910390fd5b60008260ff1611612306576040517f08c379a00000000000000000000000000000000000000000000000000000000081526004016122fd906155a8565b60405180910390fd5b60c860016000612314612889565b73ffffffffffffffffffffffffffffffffffffffff1673ffffffffffffffffffffffffffffffffffffffff1681526020019081526020016000208054905010612392576040517f08c379a000000000000000000000000000000000000000000000000000000000815260040161238990615614565b60405180910390fd5b6123e661239d612889565b308560008054906101000a900473ffffffffffffffffffffffffffffffffffffffff1673ffffffffffffffffffffffffffffffffffffffff166133d4909392919063ffffffff16565b600115158115150361240557600360009054906101000a900460ff1691505b6000603c8360ff1661241791906152a8565b426124229190614f66565b905060006040518060c001604052808681526020014281526020018381526020018560ff16815260200184151581526020016002600081548092919061246790614fc9565b9190505581525090506001600061247c612889565b73ffffffffffffffffffffffffffffffffffffffff1673ffffffffffffffffffffffffffffffffffffffff16815260200190815260200160002081908060018154018082558091505060019003906000526020600020906005020160009091909190915060008201518160000155602082015181600101556040820151816002015560608201518160030160006101000a81548160ff021916908360ff16021790555060808201518160030160016101000a81548160ff02191690831515021790555060a082015181600401555050612553612889565b73ffffffffffffffffffffffffffffffffffffffff167f6fa2f6021ee337436cdf2b2570285886da18bc06402ce284d296504a0fe8f8758260a0015187876040516125a093929190615634565b60405180910390a26125bb60006125b5612889565b87612a29565b50506125c5612af4565b505050565b6125d2612832565b60006125dc612889565b905060006125ea8284612891565b90506000600160008473ffffffffffffffffffffffffffffffffffffffff1673ffffffffffffffffffffffffffffffffffffffff168152602001908152602001600020828154811061263f5761263e614f9a565b5b9060005260206000209060050201905080600201544210612695576040517f08c379a000000000000000000000000000000000000000000000000000000000815260040161268c906151c1565b60405180910390fd5b8060030160019054906101000a900460ff16158160030160016101000a81548160ff021916908315150217905550600360009054906101000a900460ff168160030160006101000a81548160ff021916908360ff160217905550428160010181905550603c8160030160009054906101000a900460ff1660ff1661271991906152a8565b426127249190614f66565b81600201819055508273ffffffffffffffffffffffffffffffffffffffff167f1d94e785ca79528225ae3b538b0fc686337b6c73da42dbfee64c8d01b0779913858360030160019054906101000a900460ff1660405161278592919061566b565b60405180910390a2505050612798612af4565b50565b60c881565b60007f01ffc9a7000000000000000000000000000000000000000000000000000000007bffffffffffffffffffffffffffffffffffffffffffffffffffffffff1916827bffffffffffffffffffffffffffffffffffffffffffffffffffffffff1916149050919050565b60007f02dd7bc7dec4dceedda775e58dd541e08a116c6c53815c0bd028192f7b626800905090565b600061283c613456565b9050600281600001540361287c576040517f3ee5aeb500000000000000000000000000000000000000000000000000000000815260040160405180910390fd5b6002816000018190555050565b600033905090565b600080600090505b600160008573ffffffffffffffffffffffffffffffffffffffff1673ffffffffffffffffffffffffffffffffffffffff168152602001908152602001600020805490508110156129685782600160008673ffffffffffffffffffffffffffffffffffffffff1673ffffffffffffffffffffffffffffffffffffffff168152602001908152602001600020828154811061293557612934614f9a565b5b9060005260206000209060050201600401540361295557809150506129a4565b808061296090614fc9565b915050612899565b506040517f08c379a000000000000000000000000000000000000000000000000000000000815260040161299b906156e0565b60405180910390fd5b92915050565b612a24838473ffffffffffffffffffffffffffffffffffffffff1663a9059cbb85856040516024016129dd929190615700565b604051602081830303815290604052915060e01b6020820180517bffffffffffffffffffffffffffffffffffffffffffffffffffffffff838183161783525050505061347e565b505050565b6000612a33612d24565b9050600073ffffffffffffffffffffffffffffffffffffffff168473ffffffffffffffffffffffffffffffffffffffff1603612a8457612a8181600201613520612a7c85613536565b6135a4565b50505b600073ffffffffffffffffffffffffffffffffffffffff168373ffffffffffffffffffffffffffffffffffffffff1603612ad357612ad0816002016135e4612acb85613536565b6135a4565b50505b612aee612adf8561152b565b612ae88561152b565b846135fa565b50505050565b6000612afe613456565b90506001816000018190555050565b612b1e81612b19612889565b613884565b50565b600080612b2c61280a565b9050612b388484611a76565b612c1657600181600001600086815260200190815260200160002060000160008573ffffffffffffffffffffffffffffffffffffffff1673ffffffffffffffffffffffffffffffffffffffff16815260200190815260200160002060006101000a81548160ff021916908315150217905550612bb2612889565b73ffffffffffffffffffffffffffffffffffffffff168373ffffffffffffffffffffffffffffffffffffffff16857f2f8788117e7eff1d82e926ec794901d17c78024a50270940304540a733656f0d60405160405180910390a46001915050612c1c565b60009150505b92915050565b600080612c2d61280a565b9050612c398484611a76565b15612d1857600081600001600086815260200190815260200160002060000160008573ffffffffffffffffffffffffffffffffffffffff1673ffffffffffffffffffffffffffffffffffffffff16815260200190815260200160002060006101000a81548160ff021916908315150217905550612cb4612889565b73ffffffffffffffffffffffffffffffffffffffff168373ffffffffffffffffffffffffffffffffffffffff16857ff6391f5c32d9c69d2a47ea670b442974b53935d1edc7fd64eb21e047a839171b60405160405180910390a46001915050612d1e565b60009150505b92915050565b60007fe8b26c30fad74198956032a3533d903385d56dd795af560196f9c78d4af40d00905090565b600080612d57611aef565b90508065ffffffffffff168310612da75782816040517fecd3f81e000000000000000000000000000000000000000000000000000000008152600401612d9e929190615729565b60405180910390fd5b612db0836138d5565b915050919050565b600080836000018054905090506000808290506005831115612e40576000612ddf8461392f565b84612dea91906150e9565b9050612df98760000182613acc565b60000160009054906101000a900465ffffffffffff1665ffffffffffff168665ffffffffffff161015612e2e57809150612e3e565b600181612e3b9190614f66565b92505b505b6000612e5187600001878585613ae1565b905060008114612ea357612e7487600001600183612e6f91906150e9565b613acc565b60000160069054906101000a900479ffffffffffffffffffffffffffffffffffffffffffffffffffff16612ea6565b60005b94505050505092915050565b6000612ebd436138d5565b905090565b600080612ef684600001518560800151612ee0578560600151612ef1565b600360009054906101000a900460ff165b613b5a565b9050836080015115612f0b5780915050612fac565b8360200151831080612f21575083604001518310155b15612f30576000915050612fac565b600084602001518560400151612f4691906150e9565b90506000856020015185612f5a91906150e9565b905060008261271061ffff1685612f7191906152a8565b612f7b9190615781565b905061271061ffff168183612f9091906152a8565b612f9a9190615781565b84612fa591906150e9565b9450505050505b92915050565b6000612fbc612d24565b90506000612fc98461152b565b9050828260000160008673ffffffffffffffffffffffffffffffffffffffff1673ffffffffffffffffffffffffffffffffffffffff16815260200190815260200160002060006101000a81548173ffffffffffffffffffffffffffffffffffffffff021916908373ffffffffffffffffffffffffffffffffffffffff1602179055508273ffffffffffffffffffffffffffffffffffffffff168173ffffffffffffffffffffffffffffffffffffffff168573ffffffffffffffffffffffffffffffffffffffff167f3134e8a2e6d97e929a7e54011ea5485d7d196dd5f0ba4d4ef95803e8e3fc257f60405160405180910390a46130cf81846130ca87613bdc565b6135fa565b50505050565b60007f5ab42ced628888259c08ac98db1eb0cf702fc1501344311d8b100cd1bfe4bb00905090565b60007fa16a46d94261c7517cc8ff89f61c0ce93598e3c849801011dee649a6a557d100905090565b606060006131316130fd565b9050806002018054613142906157e1565b80601f016020809104026020016040519081016040528092919081815260200182805461316e906157e1565b80156131bb5780601f10613190576101008083540402835291602001916131bb565b820191906000526020600020905b81548152906001019060200180831161319e57829003601f168201915b505050505091505090565b606060006131d26130fd565b90508060030180546131e3906157e1565b80601f016020809104026020016040519081016040528092919081815260200182805461320f906157e1565b801561325c5780601f106132315761010080835404028352916020019161325c565b820191906000526020600020905b81548152906001019060200180831161323f57829003601f168201915b505050505091505090565b600080613272613bee565b90508091505090565b613283613c19565b61328b613c59565b565b613295613c19565b565b61329f613c19565b565b6132a9613c19565b6132b38282613c7a565b5050565b6000808260000180549050905060008114613314576132e5836000016001836132e091906150e9565b613acc565b60000160069054906101000a900479ffffffffffffffffffffffffffffffffffffffffffffffffffff16613317565b60005b915050919050565b600061333261332c613ccf565b83613cde565b9050919050565b60008060008061334b88888888613d1f565b92509250925061335b8282613e13565b829350505050949350505050565b600061337483613f77565b90508082146133bc5782816040517f752d88c00000000000000000000000000000000000000000000000000000000081526004016133b3929190615700565b60405180910390fd5b505050565b60006133cd8242612ec2565b9050919050565b613450848573ffffffffffffffffffffffffffffffffffffffff166323b872dd86868660405160240161340993929190615812565b604051602081830303815290604052915060e01b6020820180517bffffffffffffffffffffffffffffffffffffffffffffffffffffffff838183161783525050505061347e565b50505050565b60007f9b779b17422d0df92223018b32b4d1fa46e071723d6817e2486d003becc55f00905090565b600080602060008451602086016000885af1806134a1576040513d6000823e3d81fd5b3d9250600051915050600082146134bc5760018114156134d8565b60008473ffffffffffffffffffffffffffffffffffffffff163b145b1561351a57836040517f5274afe70000000000000000000000000000000000000000000000000000000081526004016135119190614b3c565b60405180910390fd5b50505050565b6000818361352e919061586f565b905092915050565b600079ffffffffffffffffffffffffffffffffffffffffffffffffffff801682111561359c5760d0826040517f6dfcc6500000000000000000000000000000000000000000000000000000000081526004016135939291906158f8565b60405180910390fd5b819050919050565b6000806135d86135b2611aef565b6135c86135be886132b7565b868863ffffffff16565b87613fdc9092919063ffffffff16565b91509150935093915050565b600081836135f29190615921565b905092915050565b6000613604612d24565b90508273ffffffffffffffffffffffffffffffffffffffff168473ffffffffffffffffffffffffffffffffffffffff16141580156136425750600082115b1561387e57600073ffffffffffffffffffffffffffffffffffffffff168473ffffffffffffffffffffffffffffffffffffffff1614613762576000806136d38360010160008873ffffffffffffffffffffffffffffffffffffffff1673ffffffffffffffffffffffffffffffffffffffff1681526020019081526020016000206135e46136ce87613536565b6135a4565b79ffffffffffffffffffffffffffffffffffffffffffffffffffff16915079ffffffffffffffffffffffffffffffffffffffffffffffffffff1691508573ffffffffffffffffffffffffffffffffffffffff167fdec2bacdd2f05b59de34da9b523dff8be42e5e38e818c82fdb0bae774387a724838360405161375792919061514c565b60405180910390a250505b600073ffffffffffffffffffffffffffffffffffffffff168373ffffffffffffffffffffffffffffffffffffffff161461387d576000806137ee8360010160008773ffffffffffffffffffffffffffffffffffffffff1673ffffffffffffffffffffffffffffffffffffffff1681526020019081526020016000206135206137e987613536565b6135a4565b79ffffffffffffffffffffffffffffffffffffffffffffffffffff16915079ffffffffffffffffffffffffffffffffffffffffffffffffffff1691508473ffffffffffffffffffffffffffffffffffffffff167fdec2bacdd2f05b59de34da9b523dff8be42e5e38e818c82fdb0bae774387a724838360405161387292919061514c565b60405180910390a250505b5b50505050565b61388e8282611a76565b6138d15780826040517fe2517d3f0000000000000000000000000000000000000000000000000000000081526004016138c892919061596f565b60405180910390fd5b5050565b600065ffffffffffff8016821115613927576030826040517f6dfcc65000000000000000000000000000000000000000000000000000000000815260040161391e9291906159d3565b60405180910390fd5b819050919050565b60006001821161394157819050613ac7565b6000829050600060019050700100000000000000000000000000000000821061397357608082901c9150604081901b90505b68010000000000000000821061399257604082901c9150602081901b90505b64010000000082106139ad57602082901c9150601081901b90505b6201000082106139c657601082901c9150600881901b90505b61010082106139de57600882901c9150600481901b90505b601082106139f557600482901c9150600281901b90505b60048210613a0557600181901b90505b600181600302901c90506001818581613a2157613a20615752565b5b048201901c90506001818581613a3a57613a39615752565b5b048201901c90506001818581613a5357613a52615752565b5b048201901c90506001818581613a6c57613a6b615752565b5b048201901c90506001818581613a8557613a84615752565b5b048201901c90506001818581613a9e57613a9d615752565b5b048201901c9050613ac0818581613ab857613ab7615752565b5b048211613ff9565b8103925050505b919050565b60008260005281602060002001905092915050565b60005b81831015613b4f576000613af88484614005565b90508465ffffffffffff16613b0d8783613acc565b60000160009054906101000a900465ffffffffffff1665ffffffffffff161115613b3957809250613b49565b600181613b469190614f66565b93505b50613ae4565b819050949350505050565b600061271061ffff16600360009054906101000a900460ff1660ff168360ff161015613bb757600360009054906101000a900460ff1660ff1661271061ffff168460ff16613ba891906152a8565b613bb29190615781565b613bbf565b61271061ffff165b84613bca91906152a8565b613bd49190615781565b905092915050565b6000613be7826115bc565b9050919050565b60007ff0c57e16840df040f15088dc2f81fe391c3923bec73e23a9662efc9c229c6a0060001b905090565b613c2161402b565b613c57576040517fd7e6bcf800000000000000000000000000000000000000000000000000000000815260040160405180910390fd5b565b613c61613c19565b6000613c6b613456565b90506001816000018190555050565b613c82613c19565b6000613c8c6130fd565b905082816002019081613c9f9190615b9e565b5081816003019081613cb19190615b9e565b506000801b81600001819055506000801b8160010181905550505050565b6000613cd961404b565b905090565b60006040517f190100000000000000000000000000000000000000000000000000000000000081528360028201528260228201526042812091505092915050565b60008060007f7fffffffffffffffffffffffffffffff5d576e7357a4501ddfe92f46681b20a08460001c1115613d5f576000600385925092509250613e09565b600060018888888860405160008152602001604052604051613d849493929190615c70565b6020604051602081039080840390855afa158015613da6573d6000803e3d6000fd5b505050602060405103519050600073ffffffffffffffffffffffffffffffffffffffff168173ffffffffffffffffffffffffffffffffffffffff1603613dfa57600060016000801b93509350935050613e09565b8060008060001b935093509350505b9450945094915050565b60006003811115613e2757613e26615cb5565b5b826003811115613e3a57613e39615cb5565b5b0315613f735760016003811115613e5457613e53615cb5565b5b826003811115613e6757613e66615cb5565b5b03613e9e576040517ff645eedf00000000000000000000000000000000000000000000000000000000815260040160405180910390fd5b60026003811115613eb257613eb1615cb5565b5b826003811115613ec557613ec4615cb5565b5b03613f0a578060001c6040517ffce698f7000000000000000000000000000000000000000000000000000000008152600401613f019190614a79565b60405180910390fd5b600380811115613f1d57613f1c615cb5565b5b826003811115613f3057613f2f615cb5565b5b03613f7257806040517fd78bce0c000000000000000000000000000000000000000000000000000000008152600401613f69919061470b565b60405180910390fd5b5b5050565b600080613f826130d5565b90508060000160008473ffffffffffffffffffffffffffffffffffffffff1673ffffffffffffffffffffffffffffffffffffffff168152602001908152602001600020600081548092919060010191905055915050919050565b600080613fed8560000185856140af565b91509150935093915050565b60008115159050919050565b600060028284186140169190615781565b8284166140239190614f66565b905092915050565b6000614035613267565b60000160089054906101000a900460ff16905090565b60007f8b73c3c69bb8fe3d512ecc4cf759cc79239f7b179b0ffacaa9a75d522b39400f6140766143bc565b61407e614438565b4630604051602001614094959493929190615ce4565b60405160208183030381529060405280519060200120905090565b60008060008580549050905060008111156142cc5760006140dc876001846140d791906150e9565b613acc565b905060008160000160009054906101000a900465ffffffffffff16905060008260000160069054906101000a900479ffffffffffffffffffffffffffffffffffffffffffffffffffff1690508765ffffffffffff168265ffffffffffff161115614172576040517f2520601d00000000000000000000000000000000000000000000000000000000815260040160405180910390fd5b8765ffffffffffff168265ffffffffffff16036141dd57868360000160066101000a81548179ffffffffffffffffffffffffffffffffffffffffffffffffffff021916908379ffffffffffffffffffffffffffffffffffffffffffffffffffff1602179055506142bd565b8860405180604001604052808a65ffffffffffff1681526020018979ffffffffffffffffffffffffffffffffffffffffffffffffffff168152509080600181540180825580915050600190039060005260206000200160009091909190915060008201518160000160006101000a81548165ffffffffffff021916908365ffffffffffff16021790555060208201518160000160066101000a81548179ffffffffffffffffffffffffffffffffffffffffffffffffffff021916908379ffffffffffffffffffffffffffffffffffffffffffffffffffff16021790555050505b808795509550505050506143b4565b8560405180604001604052808765ffffffffffff1681526020018679ffffffffffffffffffffffffffffffffffffffffffffffffffff168152509080600181540180825580915050600190039060005260206000200160009091909190915060008201518160000160006101000a81548165ffffffffffff021916908365ffffffffffff16021790555060208201518160000160066101000a81548179ffffffffffffffffffffffffffffffffffffffffffffffffffff021916908379ffffffffffffffffffffffffffffffffffffffffffffffffffff160217905550505060008492509250505b935093915050565b6000806143c76130fd565b905060006143d3613125565b90506000815111156143f057808051906020012092505050614435565b6000826000015490506000801b811461440e57809350505050614435565b7fc5d2460186f7233c927e7db2dcc703c0e500b653ca82273b7bfad8045d85a47093505050505b90565b6000806144436130fd565b9050600061444f6131c6565b905060008151111561446c578080519060200120925050506144b1565b6000826001015490506000801b811461448a578093505050506144b1565b7fc5d2460186f7233c927e7db2dcc703c0e500b653ca82273b7bfad8045d85a47093505050505b90565b6040518060c00160405280600081526020016000815260200160008152602001600060ff168152602001600015158152602001600081525090565b600080fd5b60007fffffffff0000000000000000000000000000000000000000000000000000000082169050919050565b614529816144f4565b811461453457600080fd5b50565b60008135905061454681614520565b92915050565b600060208284031215614562576145616144ef565b5b600061457084828501614537565b91505092915050565b60008115159050919050565b61458e81614579565b82525050565b60006020820190506145a96000830184614585565b92915050565b600081519050919050565b600082825260208201905092915050565b60005b838110156145e95780820151818401526020810190506145ce565b60008484015250505050565b6000601f19601f8301169050919050565b6000614611826145af565b61461b81856145ba565b935061462b8185602086016145cb565b614634816145f5565b840191505092915050565b600060208201905081810360008301526146598184614606565b905092915050565b600061ffff82169050919050565b61467881614661565b82525050565b6000602082019050614693600083018461466f565b92915050565b6000819050919050565b6146ac81614699565b81146146b757600080fd5b50565b6000813590506146c9816146a3565b92915050565b6000602082840312156146e5576146e46144ef565b5b60006146f3848285016146ba565b91505092915050565b61470581614699565b82525050565b600060208201905061472060008301846146fc565b92915050565b600073ffffffffffffffffffffffffffffffffffffffff82169050919050565b600061475182614726565b9050919050565b61476181614746565b811461476c57600080fd5b50565b60008135905061477e81614758565b92915050565b6000819050919050565b61479781614784565b81146147a257600080fd5b50565b6000813590506147b48161478e565b92915050565b6000806000606084860312156147d3576147d26144ef565b5b60006147e18682870161476f565b93505060206147f2868287016147a5565b9250506040614803868287016147a5565b9150509250925092565b600081519050919050565b600082825260208201905092915050565b6000819050602082019050919050565b61484281614784565b82525050565b600060ff82169050919050565b61485e81614848565b82525050565b61486d81614579565b82525050565b60c0820160008201516148896000850182614839565b50602082015161489c6020850182614839565b5060408201516148af6040850182614839565b5060608201516148c26060850182614855565b5060808201516148d56080850182614864565b5060a08201516148e860a0850182614839565b50505050565b60006148fa8383614873565b60c08301905092915050565b6000602082019050919050565b600061491e8261480d565b6149288185614818565b935061493383614829565b8060005b8381101561496457815161494b88826148ee565b975061495683614906565b925050600181019050614937565b5085935050505092915050565b6000602082019050818103600083015261498b8184614913565b905092915050565b61499c81614848565b82525050565b60006020820190506149b76000830184614993565b92915050565b6000602082840312156149d3576149d26144ef565b5b60006149e1848285016147a5565b91505092915050565b60008060408385031215614a0157614a006144ef565b5b6000614a0f858286016146ba565b9250506020614a208582860161476f565b9150509250929050565b60008060408385031215614a4157614a406144ef565b5b6000614a4f8582860161476f565b9250506020614a60858286016147a5565b9150509250929050565b614a7381614784565b82525050565b6000602082019050614a8e6000830184614a6a565b92915050565b614a9d81614848565b8114614aa857600080fd5b50565b600081359050614aba81614a94565b92915050565b60008060408385031215614ad757614ad66144ef565b5b6000614ae5858286016147a5565b9250506020614af685828601614aab565b9150509250929050565b600060208284031215614b1657614b156144ef565b5b6000614b248482850161476f565b91505092915050565b614b3681614746565b82525050565b6000602082019050614b516000830184614b2d565b92915050565b600060208284031215614b6d57614b6c6144ef565b5b6000614b7b84828501614aab565b91505092915050565b60007fff0000000000000000000000000000000000000000000000000000000000000082169050919050565b614bb981614b84565b82525050565b600081519050919050565b600082825260208201905092915050565b6000819050602082019050919050565b6000614bf78383614839565b60208301905092915050565b6000602082019050919050565b6000614c1b82614bbf565b614c258185614bca565b9350614c3083614bdb565b8060005b83811015614c61578151614c488882614beb565b9750614c5383614c03565b925050600181019050614c34565b5085935050505092915050565b600060e082019050614c83600083018a614bb0565b8181036020830152614c958189614606565b90508181036040830152614ca98188614606565b9050614cb86060830187614a6a565b614cc56080830186614b2d565b614cd260a08301856146fc565b81810360c0830152614ce48184614c10565b905098975050505050505050565b600065ffffffffffff82169050919050565b614d0d81614cf2565b82525050565b6000602082019050614d286000830184614d04565b92915050565b60008060408385031215614d4557614d446144ef565b5b6000614d538582860161476f565b9250506020614d6485828601614aab565b9150509250929050565b600060c082019050614d836000830189614a6a565b614d906020830188614a6a565b614d9d6040830187614a6a565b614daa6060830186614993565b614db76080830185614585565b614dc460a0830184614a6a565b979650505050505050565b614dd881614579565b8114614de357600080fd5b50565b600081359050614df581614dcf565b92915050565b600060208284031215614e1157614e106144ef565b5b6000614e1f84828501614de6565b91505092915050565b60008060008060008060c08789031215614e4557614e446144ef565b5b6000614e5389828a0161476f565b9650506020614e6489828a016147a5565b9550506040614e7589828a016147a5565b9450506060614e8689828a01614aab565b9350506080614e9789828a016146ba565b92505060a0614ea889828a016146ba565b9150509295509295509295565b600080600060608486031215614ece57614ecd6144ef565b5b6000614edc868287016147a5565b9350506020614eed86828701614aab565b9250506040614efe86828701614de6565b9150509250925092565b7f4e487b7100000000000000000000000000000000000000000000000000000000600052604160045260246000fd5b7f4e487b7100000000000000000000000000000000000000000000000000000000600052601160045260246000fd5b6000614f7182614784565b9150614f7c83614784565b9250828201905080821115614f9457614f93614f37565b5b92915050565b7f4e487b7100000000000000000000000000000000000000000000000000000000600052603260045260246000fd5b6000614fd482614784565b91507fffffffffffffffffffffffffffffffffffffffffffffffffffffffffffffffff820361500657615005614f37565b5b600182019050919050565b7f4c6f636b206973206e6f74206578706972656400000000000000000000000000600082015250565b60006150476013836145ba565b915061505282615011565b602082019050919050565b600060208201905081810360008301526150768161503a565b9050919050565b7f4c6f636b206973206175746f2d72656e6577696e670000000000000000000000600082015250565b60006150b36015836145ba565b91506150be8261507d565b602082019050919050565b600060208201905081810360008301526150e2816150a6565b9050919050565b60006150f482614784565b91506150ff83614784565b925082820390508181111561511757615116614f37565b5b92915050565b7f4e487b7100000000000000000000000000000000000000000000000000000000600052603160045260246000fd5b60006040820190506151616000830185614a6a565b61516e6020830184614a6a565b9392505050565b7f4c6f636b20697320657870697265640000000000000000000000000000000000600082015250565b60006151ab600f836145ba565b91506151b682615175565b602082019050919050565b600060208201905081810360008301526151da8161519e565b9050919050565b60006151ec82614848565b91506151f783614848565b9250828201905060ff8111156152105761520f614f37565b5b92915050565b7f4e756d207765656b73206d757374206265206c657373207468616e206d61782060008201527f7765656b73000000000000000000000000000000000000000000000000000000602082015250565b60006152726025836145ba565b915061527d82615216565b604082019050919050565b600060208201905081810360008301526152a181615265565b9050919050565b60006152b382614784565b91506152be83614784565b92508282026152cc81614784565b915082820484148315176152e3576152e2614f37565b5b5092915050565b60006040820190506152ff6000830185614a6a565b61530c6020830184614993565b9392505050565b600062ffffff82169050919050565b600061532d82615313565b915061533883615313565b925082820261534681615313565b915080821461535857615357614f37565b5b5092915050565b7f4549503731323a20556e696e697469616c697a65640000000000000000000000600082015250565b60006153956015836145ba565b91506153a08261535f565b602082019050919050565b600060208201905081810360008301526153c481615388565b9050919050565b7f496e76616c696420746f6b656e00000000000000000000000000000000000000600082015250565b6000615401600d836145ba565b915061540c826153cb565b602082019050919050565b60006020820190508181036000830152615430816153f4565b9050919050565b6000819050919050565b600067ffffffffffffffff82169050919050565b6000819050919050565b600061547a61547561547084615437565b615455565b615441565b9050919050565b61548a8161545f565b82525050565b60006020820190506154a56000830184615481565b92915050565b60006080820190506154c060008301876146fc565b6154cd6020830186614b2d565b6154da6040830185614a6a565b6154e76060830184614a6a565b95945050505050565b7f416d6f756e74206d7573742062652067726561746572207468616e2030000000600082015250565b6000615526601d836145ba565b9150615531826154f0565b602082019050919050565b6000602082019050818103600083015261555581615519565b9050919050565b7f4e756d207765656b73206d7573742062652067726561746572207468616e2030600082015250565b60006155926020836145ba565b915061559d8261555c565b602082019050919050565b600060208201905081810360008301526155c181615585565b9050919050565b7f4f766572206d617820706f736974696f6e730000000000000000000000000000600082015250565b60006155fe6012836145ba565b9150615609826155c8565b602082019050919050565b6000602082019050818103600083015261562d816155f1565b9050919050565b60006060820190506156496000830186614a6a565b6156566020830185614a6a565b6156636040830184614993565b949350505050565b60006040820190506156806000830185614a6a565b61568d6020830184614585565b9392505050565b7f4c6f636b206e6f7420666f756e64000000000000000000000000000000000000600082015250565b60006156ca600e836145ba565b91506156d582615694565b602082019050919050565b600060208201905081810360008301526156f9816156bd565b9050919050565b60006040820190506157156000830185614b2d565b6157226020830184614a6a565b9392505050565b600060408201905061573e6000830185614a6a565b61574b6020830184614d04565b9392505050565b7f4e487b7100000000000000000000000000000000000000000000000000000000600052601260045260246000fd5b600061578c82614784565b915061579783614784565b9250826157a7576157a6615752565b5b828204905092915050565b7f4e487b7100000000000000000000000000000000000000000000000000000000600052602260045260246000fd5b600060028204905060018216806157f957607f821691505b60208210810361580c5761580b6157b2565b5b50919050565b60006060820190506158276000830186614b2d565b6158346020830185614b2d565b6158416040830184614a6a565b949350505050565b600079ffffffffffffffffffffffffffffffffffffffffffffffffffff82169050919050565b600061587a82615849565b915061588583615849565b9250828201905079ffffffffffffffffffffffffffffffffffffffffffffffffffff8111156158b7576158b6614f37565b5b92915050565b6000819050919050565b60006158e26158dd6158d8846158bd565b615455565b614848565b9050919050565b6158f2816158c7565b82525050565b600060408201905061590d60008301856158e9565b61591a6020830184614a6a565b9392505050565b600061592c82615849565b915061593783615849565b9250828203905079ffffffffffffffffffffffffffffffffffffffffffffffffffff81111561596957615968614f37565b5b92915050565b60006040820190506159846000830185614b2d565b61599160208301846146fc565b9392505050565b6000819050919050565b60006159bd6159b86159b384615998565b615455565b614848565b9050919050565b6159cd816159a2565b82525050565b60006040820190506159e860008301856159c4565b6159f56020830184614a6a565b9392505050565b60008190508160005260206000209050919050565b60006020601f8301049050919050565b600082821b905092915050565b600060088302615a5e7fffffffffffffffffffffffffffffffffffffffffffffffffffffffffffffffff82615a21565b615a688683615a21565b95508019841693508086168417925050509392505050565b6000615a9b615a96615a9184614784565b615455565b614784565b9050919050565b6000819050919050565b615ab583615a80565b615ac9615ac182615aa2565b848454615a2e565b825550505050565b600090565b615ade615ad1565b615ae9818484615aac565b505050565b5b81811015615b0d57615b02600082615ad6565b600181019050615aef565b5050565b601f821115615b5257615b23816159fc565b615b2c84615a11565b81016020851015615b3b578190505b615b4f615b4785615a11565b830182615aee565b50505b505050565b600082821c905092915050565b6000615b7560001984600802615b57565b1980831691505092915050565b6000615b8e8383615b64565b9150826002028217905092915050565b615ba7826145af565b67ffffffffffffffff811115615bc057615bbf614f08565b5b615bca82546157e1565b615bd5828285615b11565b600060209050601f831160018114615c085760008415615bf6578287015190505b615c008582615b82565b865550615c68565b601f198416615c16866159fc565b60005b82811015615c3e57848901518255600182019150602085019450602081019050615c19565b86831015615c5b5784890151615c57601f891682615b64565b8355505b6001600288020188555050505b505050505050565b6000608082019050615c8560008301876146fc565b615c926020830186614993565b615c9f60408301856146fc565b615cac60608301846146fc565b95945050505050565b7f4e487b7100000000000000000000000000000000000000000000000000000000600052602160045260246000fd5b600060a082019050615cf960008301886146fc565b615d0660208301876146fc565b615d1360408301866146fc565b615d206060830185614a6a565b615d2d6080830184614b2d565b969550505050505056fea2646970667358221220197e784b5c8a805b2e780d1ff1980538dc367ebbe561349666bc97cdd0fd360464736f6c63430008140033",
  "devdoc": {
    "errors": {
      "AccessControlBadConfirmation()": [
        {
          "details": "The caller of a function is not the expected one. NOTE: Don't confuse with {AccessControlUnauthorizedAccount}."
        }
      ],
      "AccessControlUnauthorizedAccount(address,bytes32)": [
        {
          "details": "The `account` is missing a role."
        }
      ],
      "CheckpointUnorderedInsertion()": [
        {
          "details": "A value was attempted to be inserted on a past checkpoint."
        }
      ],
      "ECDSAInvalidSignature()": [
        {
          "details": "The signature derives the `address(0)`."
        }
      ],
      "ECDSAInvalidSignatureLength(uint256)": [
        {
          "details": "The signature has an invalid length."
        }
      ],
      "ECDSAInvalidSignatureS(bytes32)": [
        {
          "details": "The signature has an S value that is in the upper half order."
        }
      ],
      "ERC5805FutureLookup(uint256,uint48)": [
        {
          "details": "Lookup to future votes is not available."
        }
      ],
      "ERC6372InconsistentClock()": [
        {
          "details": "The clock was incorrectly modified."
        }
      ],
      "InvalidAccountNonce(address,uint256)": [
        {
          "details": "The nonce used for an `account` is not the expected current nonce."
        }
      ],
      "InvalidInitialization()": [
        {
          "details": "The contract is already initialized."
        }
      ],
      "NotInitializing()": [
        {
          "details": "The contract is not initializing."
        }
      ],
      "ReentrancyGuardReentrantCall()": [
        {
          "details": "Unauthorized reentrant call."
        }
      ],
      "SafeCastOverflowedUintDowncast(uint8,uint256)": [
        {
          "details": "Value doesn't fit in an uint of `bits` size."
        }
      ],
      "SafeERC20FailedOperation(address)": [
        {
          "details": "An operation with an ERC-20 token failed."
        }
      ],
      "VotesExpiredSignature(uint256)": [
        {
          "details": "The signature used has expired."
        }
      ]
    },
    "events": {
      "DelegateChanged(address,address,address)": {
        "details": "Emitted when an account changes their delegate."
      },
      "DelegateVotesChanged(address,uint256,uint256)": {
        "details": "Emitted when a token transfer or delegate change results in changes to a delegate's number of voting units."
      },
      "EIP712DomainChanged()": {
        "details": "MAY be emitted to signal that the domain could have changed."
      },
      "Initialized(uint64)": {
        "details": "Triggered when the contract has been initialized or reinitialized."
      },
      "RoleAdminChanged(bytes32,bytes32,bytes32)": {
        "details": "Emitted when `newAdminRole` is set as ``role``'s admin role, replacing `previousAdminRole` `DEFAULT_ADMIN_ROLE` is the starting admin for all roles, despite {RoleAdminChanged} not being emitted to signal this."
      },
      "RoleGranted(bytes32,address,address)": {
        "details": "Emitted when `account` is granted `role`. `sender` is the account that originated the contract call. This account bears the admin role (for the granted role). Expected in cases where the role was granted using the internal {AccessControl-_grantRole}."
      },
      "RoleRevoked(bytes32,address,address)": {
        "details": "Emitted when `account` is revoked `role`. `sender` is the account that originated the contract call:   - if using `revokeRole`, it is the admin role bearer   - if using `renounceRole`, it is the role bearer (i.e. `account`)"
      }
    },
    "kind": "dev",
    "methods": {
      "CLOCK_MODE()": {
        "details": "Machine-readable description of the clock as specified in ERC-6372."
      },
      "clock()": {
        "details": "Clock used for flagging checkpoints. Can be overridden to implement timestamp based checkpoints (and voting), in which case {CLOCK_MODE} should be overridden as well to match."
      },
      "delegate(address)": {
        "details": "Delegates votes from the sender to `delegatee`."
      },
      "delegateBySig(address,uint256,uint256,uint8,bytes32,bytes32)": {
        "details": "Delegates votes from signer to `delegatee`."
      },
      "delegates(address)": {
        "details": "Returns the delegate that `account` has chosen."
      },
      "eip712Domain()": {
        "details": "returns the fields and values that describe the domain separator used by this contract for EIP-712 signature."
      },
      "getPastTotalSupply(uint256)": {
        "details": "Returns the total supply of votes available at a specific moment in the past. If the `clock()` is configured to use block numbers, this will return the value at the end of the corresponding block. NOTE: This value is the sum of all available votes, which is not necessarily the sum of all delegated votes. Votes that have not been delegated are still part of total supply, even though they would not participate in a vote. Requirements: - `timepoint` must be in the past. If operating using block numbers, the block must be already mined."
      },
      "getPastVotes(address,uint256)": {
        "details": "Returns the amount of votes that `account` had at a specific moment in the past. If the `clock()` is configured to use block numbers, this will return the value at the end of the corresponding block. Requirements: - `timepoint` must be in the past. If operating using block numbers, the block must be already mined."
      },
      "getRoleAdmin(bytes32)": {
        "details": "Returns the admin role that controls `role`. See {grantRole} and {revokeRole}. To change a role's admin, use {_setRoleAdmin}."
      },
      "getVotes(address)": {
        "details": "Returns the current amount of votes that `account` has."
      },
      "grantRole(bytes32,address)": {
        "details": "Grants `role` to `account`. If `account` had not been already granted `role`, emits a {RoleGranted} event. Requirements: - the caller must have ``role``'s admin role. May emit a {RoleGranted} event."
      },
      "hasRole(bytes32,address)": {
        "details": "Returns `true` if `account` has been granted `role`."
      },
      "nonces(address)": {
        "details": "Returns the next unused nonce for an address."
      },
      "renounceRole(bytes32,address)": {
        "details": "Revokes `role` from the calling account. Roles are often managed via {grantRole} and {revokeRole}: this function's purpose is to provide a mechanism for accounts to lose their privileges if they are compromised (such as when a trusted device is misplaced). If the calling account had been revoked `role`, emits a {RoleRevoked} event. Requirements: - the caller must be `callerConfirmation`. May emit a {RoleRevoked} event."
      },
      "revokeRole(bytes32,address)": {
        "details": "Revokes `role` from `account`. If `account` had been granted `role`, emits a {RoleRevoked} event. Requirements: - the caller must have ``role``'s admin role. May emit a {RoleRevoked} event."
      },
      "supportsInterface(bytes4)": {
        "details": "See {IERC165-supportsInterface}."
      }
    },
    "version": 1
  },
  "userdoc": {
    "kind": "user",
    "methods": {},
    "version": 1
  },
  "storageLayout": {
    "storage": [
      {
        "astId": 10125,
        "contract": "contracts/veVirtual.sol:veVirtual",
        "label": "baseToken",
        "offset": 0,
        "slot": "0",
        "type": "t_address"
      },
      {
        "astId": 10131,
        "contract": "contracts/veVirtual.sol:veVirtual",
        "label": "locks",
        "offset": 0,
        "slot": "1",
        "type": "t_mapping(t_address,t_array(t_struct(Lock)10112_storage)dyn_storage)"
      },
      {
        "astId": 10133,
        "contract": "contracts/veVirtual.sol:veVirtual",
        "label": "_nextId",
        "offset": 0,
        "slot": "2",
        "type": "t_uint256"
      },
      {
        "astId": 10135,
        "contract": "contracts/veVirtual.sol:veVirtual",
        "label": "maxWeeks",
        "offset": 0,
        "slot": "3",
        "type": "t_uint8"
      },
      {
        "astId": 10175,
        "contract": "contracts/veVirtual.sol:veVirtual",
        "label": "adminUnlocked",
        "offset": 1,
        "slot": "3",
        "type": "t_bool"
      }
    ],
    "types": {
      "t_address": {
        "encoding": "inplace",
        "label": "address",
        "numberOfBytes": "20"
      },
      "t_array(t_struct(Lock)10112_storage)dyn_storage": {
        "base": "t_struct(Lock)10112_storage",
        "encoding": "dynamic_array",
        "label": "struct veVirtual.Lock[]",
        "numberOfBytes": "32"
      },
      "t_bool": {
        "encoding": "inplace",
        "label": "bool",
        "numberOfBytes": "1"
      },
      "t_mapping(t_address,t_array(t_struct(Lock)10112_storage)dyn_storage)": {
        "encoding": "mapping",
        "key": "t_address",
        "label": "mapping(address => struct veVirtual.Lock[])",
        "numberOfBytes": "32",
        "value": "t_array(t_struct(Lock)10112_storage)dyn_storage"
      },
      "t_struct(Lock)10112_storage": {
        "encoding": "inplace",
        "label": "struct veVirtual.Lock",
        "members": [
          {
            "astId": 10101,
            "contract": "contracts/veVirtual.sol:veVirtual",
            "label": "amount",
            "offset": 0,
            "slot": "0",
            "type": "t_uint256"
          },
          {
            "astId": 10103,
            "contract": "contracts/veVirtual.sol:veVirtual",
            "label": "start",
            "offset": 0,
            "slot": "1",
            "type": "t_uint256"
          },
          {
            "astId": 10105,
            "contract": "contracts/veVirtual.sol:veVirtual",
            "label": "end",
            "offset": 0,
            "slot": "2",
            "type": "t_uint256"
          },
          {
            "astId": 10107,
            "contract": "contracts/veVirtual.sol:veVirtual",
            "label": "numWeeks",
            "offset": 0,
            "slot": "3",
            "type": "t_uint8"
          },
          {
            "astId": 10109,
            "contract": "contracts/veVirtual.sol:veVirtual",
            "label": "autoRenew",
            "offset": 1,
            "slot": "3",
            "type": "t_bool"
          },
          {
            "astId": 10111,
            "contract": "contracts/veVirtual.sol:veVirtual",
            "label": "id",
            "offset": 0,
            "slot": "4",
            "type": "t_uint256"
          }
        ],
        "numberOfBytes": "160"
      },
      "t_uint256": {
        "encoding": "inplace",
        "label": "uint256",
        "numberOfBytes": "32"
      },
      "t_uint8": {
        "encoding": "inplace",
        "label": "uint8",
        "numberOfBytes": "1"
      }
    }
  }
}